:020000040000FA
:041000002DEF08F0D8
:08100800F76A180FF66E100ED6
:10101000F7220900F550120050726F62616E646F22
:1010200020656E76696F206465206461746F730D4E
:101030000A00EA6A070EE96EEF500EE00F0E016E2D
:10104000006A002EFED7012EFBD78F0E006E002EF9
:10105000FED70000EF2EF2D7000CF86AD09EEA6AA5
:10106000E96AB886E10EAF6E040EB06EA60EAC6EE5
:10107000900EAB6EC150C00B0F09C16E070EB46E5F
:10108000200E056EC150C00B0F09C16EC29096981C
:10109000D190800ED56E070EB46E9250270E006E62
:1010A000002EFED700D0B450A19CB56AD36AD350AD
:1010B000020E066EFA0E076EBCDF062EFBD79EAA46
:1010C0000BD09EAAFED7AECF05F0320E076EB1DF71
:1010D00005509EA8FED7AD6E0550610802E19690BE
:1010E0008D800550620802E196908D90055063084E
:1010F00004E196908D70730E056E948482B413D0C3
:10110000020E066EFA0E076E94DF062EFBD7066AF5
:1011100006507ADF062A006E00509EA8FED7AD6EFC
:10112000190E065CF5E10550200809E196908D70D6
:10113000040E066EFA0E076E7CDF062EFBD7BFD7B5
:021140000300AA
:020000040030CA
:0E00000020CC1F0E008785000FC00FE00F40C0
:00000001FF
;PIC18F4550
